:100000000C9434000C943E000C943E000C943E0082
:100010000C943E000C943E000C943E000C943E0068
:100020000C943E000C943E000C943E000C943E0058
:100030000C943E000C943E000C943E000C943E0048
:100040000C943E000C943E000C943E000C943E0038
:100050000C943E000C943E000C943E000C943E0028
:100060000C943E000C943E0011241FBECFEFD8E04C
:10007000DEBFCDBF0E94BF090C94DC090C940000C8
:100080001F932F933F93112722273FEF2227131708
:1000900029F023952317E9F71395F8CF3F912F9176
:1000A0001F9108951FEF1AB9209A219A229A389A1F
:1000B000399A3A9A3B9A3C9A409A419A429A439A80
:1000C000449A449A0E94400044980E944000449AF6
:1000D0000E944000439A419A439855EB3F934F93B7
:1000E0005F9342983BB133705C7F352B3BB95F9196
:1000F00035B13C7F5370352B35B94198419A4F91BA
:100100003F9151E03F934F935F93429A3BB13370DD
:100110005C7F352B3BB95F9135B13C7F5370352BFC
:1001200035B94198419A4F913F9151E03F934F9398
:100130005F93429A3BB133705C7F352B3BB95F9143
:1001400035B13C7F5370352B35B94198419A4F9169
:100150003F9150E03F934F935F93429A3BB133708E
:100160005C7F352B3BB95F9135B13C7F5370352BAC
:1001700035B94198419A4F913F9150E03F934F9349
:100180005F93429A3BB133705C7F352B3BB95F91F3
:1001900035B13C7F5370352B35B94198419A4F9119
:1001A0003F915BEC3F934F935F9342983BB1337029
:1001B0005C7F352B3BB95F9135B13C7F5370352B5C
:1001C00035B94198419A4F913F9159E33F934F93ED
:1001D0005F93429A3BB133705C7F352B3BB95F91A3
:1001E00035B13C7F5370352B35B94198419A4F91C9
:1001F0003F915CE23F934F935F93429A3BB13370E0
:100200005C7F352B3BB95F9135B13C7F5370352B0B
:1002100035B94198419A4F913F9150E03F934F93A8
:100220005F93429A3BB133705C7F352B3BB95F9152
:1002300035B13C7F5370352B35B94198419A4F9178
:100240003F9154E33F934F935F93429A3BB1337096
:100250005C7F352B3BB95F9135B13C7F5370352BBB
:1002600035B94198419A4F913F9152E03F934F9356
:100270005F93429A3BB133705C7F352B3BB95F9102
:1002800035B13C7F5370352B35B94198419A4F9128
:100290003F915FEC3F934F935F9342983BB1337034
:1002A0005C7F352B3BB95F9135B13C7F5370352B6B
:1002B00035B94198419A4F913F9150E03F934F9308
:1002C0005F93429A3BB133705C7F352B3BB95F91B2
:1002D00035B13C7F5370352B35B94198419A4F91D8
:1002E0003F9151EC3F934F935F93429A3BB13370F0
:1002F0005C7F352B3BB95F9135B13C7F5370352B1B
:1003000035B94198419A4F913F9150E33F934F93B4
:100310005F93429A3BB133705C7F352B3BB95F9161
:1003200035B13C7F5370352B35B94198419A4F9187
:100330003F9158EE3F934F935F9342983BB1337098
:100340005C7F352B3BB95F9135B13C7F5370352BCA
:1003500035B94198419A4F913F9155E83F934F935A
:100360005F93429A3BB133705C7F352B3BB95F9111
:1003700035B13C7F5370352B35B94198419A4F9137
:100380003F9150E03F934F935F93429A3BB133705C
:100390005C7F352B3BB95F9135B13C7F5370352B7A
:1003A00035B94198419A4F913F9158E73F934F9308
:1003B0005F93429A3BB133705C7F352B3BB95F91C1
:1003C00035B13C7F5370352B35B94198419A4F91E7
:1003D0003F915AEE3F934F935F9342983BB13370F6
:1003E0005C7F352B3BB95F9135B13C7F5370352B2A
:1003F00035B94198419A4F913F9150E03F934F93C7
:100400005F93429A3BB133705C7F352B3BB95F9170
:1004100035B13C7F5370352B35B94198419A4F9196
:100420003F9150E03F934F935F93429A3BB13370BB
:100430005C7F352B3BB95F9135B13C7F5370352BD9
:1004400035B94198419A4F913F915DEE3F934F935B
:100450005F9342983BB133705C7F352B3BB95F9122
:1004600035B13C7F5370352B35B94198419A4F9146
:100470003F9154E63F934F935F93429A3BB1337061
:100480005C7F352B3BB95F9135B13C7F5370352B89
:1004900035B94198419A4F913F9153E03F934F9323
:1004A0005F93429A3BB133705C7F352B3BB95F91D0
:1004B00035B13C7F5370352B35B94198419A4F91F6
:1004C0003F9152E13F934F935F93429A3BB1337018
:1004D0005C7F352B3BB95F9135B13C7F5370352B39
:1004E00035B94198419A4F913F9151E83F934F93CD
:1004F0005F93429A3BB133705C7F352B3BB95F9180
:1005000035B13C7F5370352B35B94198419A4F91A5
:100510003F9157EF3F934F935F93429A3BB13370B4
:100520005C7F352B3BB95F9135B13C7F5370352BE8
:1005300035B94198419A4F913F9150E23F934F9383
:100540005F93429A3BB133705C7F352B3BB95F912F
:1005500035B13C7F5370352B35B94198419A4F9155
:100560003F9150EC3F934F935F9342983BB1337070
:100570005C7F352B3BB95F9135B13C7F5370352B98
:1005800035B94198419A4F913F9153E23F934F9330
:100590005F93429A3BB133705C7F352B3BB95F91DF
:1005A00035B13C7F5370352B35B94198419A4F9105
:1005B0003F9151EC3F934F935F9342983BB133701F
:1005C0005C7F352B3BB95F9135B13C7F5370352B48
:1005D00035B94198419A4F913F9150E13F934F93E4
:1005E0005F93429A3BB133705C7F352B3BB95F918F
:1005F00035B13C7F5370352B35B94198419A4F91B5
:100600003F9155EC3F934F935F9342983BB13370CA
:100610005C7F352B3BB95F9135B13C7F5370352BF7
:1006200035B94198419A4F913F915EE33F934F9383
:100630005F93429A3BB133705C7F352B3BB95F913E
:1006400035B13C7F5370352B35B94198419A4F9164
:100650003F9158E23F934F935F93429A3BB133707F
:100660005C7F352B3BB95F9135B13C7F5370352BA7
:1006700035B94198419A4F913F9157EC3F934F9331
:100680005F9342983BB133705C7F352B3BB95F91F0
:1006900035B13C7F5370352B35B94198419A4F9114
:1006A0003F9156E83F934F935F93429A3BB133702B
:1006B0005C7F352B3BB95F9135B13C7F5370352B57
:1006C00035B94198419A4F913F9156E33F934F93EB
:1006D0005F9342983BB133705C7F352B3BB95F91A0
:1006E00035B13C7F5370352B35B94198419A4F91C4
:1006F0003F9158E43F934F935F93429A3BB13370DD
:100700005C7F352B3BB95F9135B13C7F5370352B06
:1007100035B94198419A4F913F915AE33F934F9396
:100720005F9342983BB133705C7F352B3BB95F914F
:1007300035B13C7F5370352B35B94198419A4F9173
:100740003F9155E53F934F935F93429A3BB133708E
:100750005C7F352B3BB95F9135B13C7F5370352BB6
:1007600035B94198419A4F913F9151EB3F934F9347
:100770005F9342983BB133705C7F352B3BB95F91FF
:1007800035B13C7F5370352B35B94198419A4F9123
:100790003F9150E03F934F935F93429A3BB1337048
:1007A0005C7F352B3BB95F9135B13C7F5370352B66
:1007B00035B94198419A4F913F9158E13F934F93FA
:1007C0005F93429A3BB133705C7F352B3BB95F91AD
:1007D00035B13C7F5370352B35B94198419A4F91D3
:1007E0003F9156EB3F934F935F9342983BB13370E9
:1007F0005C7F352B3BB95F9135B13C7F5370352B16
:1008000035B94198419A4F913F9158E03F934F93AA
:100810005F93429A3BB133705C7F352B3BB95F915C
:1008200035B13C7F5370352B35B94198419A4F9182
:100830003F9152E83F934F935F93429A3BB133709D
:100840005C7F352B3BB95F9135B13C7F5370352BC5
:1008500035B94198419A4F913F9157E23F934F9359
:100860005F93429A3BB133705C7F352B3BB95F910C
:1008700035B13C7F5370352B35B94198419A4F9132
:100880003F9151E13F934F935F9342983BB1337057
:100890005C7F352B3BB95F9135B13C7F5370352B75
:1008A00035B94198419A4F913F9158E00E944000DC
:1008B0005A95E1F759E23F934F935F9342983BB1CA
:1008C00033705C7F352B3BB95F9135B13C7F537002
:1008D000352B35B94198419A4F913F915CE23F9356
:1008E0004F935F9342983BB133705C7F352B3BB99C
:1008F0005F9135B13C7F5370352B35B94198419AA2
:100900004F913F9108951F932F93182F292F3F93B5
:100910004F935F935AE23F934F935F9342983BB15B
:1009200033705C7F352B3BB95F9135B13C7F5370A1
:10093000352B35B94198419A4F913F9150E03F9303
:100940004F935F93429A3BB133705C7F352B3BB939
:100950005F9135B13C7F5370352B35B94198419A41
:100960004F913F9150E03F934F935F93429A3BB139
:1009700033705C7F352B3BB95F9135B13C7F537051
:10098000352B35B94198419A4F913F9150E03F93B3
:100990004F935F93429A3BB133705C7F352B3BB9E9
:1009A0005F9135B13C7F5370352B35B94198419AF1
:1009B0004F913F9150EF3F934F935F93429A3BB1DA
:1009C00033705C7F352B3BB95F9135B13C7F537001
:1009D000352B35B94198419A4F913F915BE23F9356
:1009E0004F935F9342983BB133705C7F352B3BB99B
:1009F0005F9135B13C7F5370352B35B94198419AA1
:100A00004F913F9150E03F934F935F93429A3BB198
:100A100033705C7F352B3BB95F9135B13C7F5370B0
:100A2000352B35B94198419A4F913F9150E03F9312
:100A30004F935F93429A3BB133705C7F352B3BB948
:100A40005F9135B13C7F5370352B35B94198419A50
:100A50004F913F9151E03F934F935F93429A3BB147
:100A600033705C7F352B3BB95F9135B13C7F537060
:100A7000352B35B94198419A4F913F9150E43F93BE
:100A80004F935F93429A3BB133705C7F352B3BB9F8
:100A90005F9135B13C7F5370352B35B94198419A00
:100AA0004F913F915CE23F934F935F9342983BB1EC
:100AB00033705C7F352B3BB95F9135B13C7F537010
:100AC000352B35B94198419A4F913F9180EA90EF8B
:100AD000512F3F934F935F93429A3BB133705C7FAA
:100AE000352B3BB95F9135B13C7F5370352B35B910
:100AF0004198419A4F913F91522F3F934F935F936B
:100B0000429A3BB133705C7F352B3BB95F9135B175
:100B10003C7F5370352B35B94198419A4F913F91A5
:100B20009A95B1F68A9599F688279927512F3F9380
:100B30004F935F93429A3BB133705C7F352B3BB947
:100B40005F9135B13C7F5370352B35B94198419A4F
:100B50004F913F91522F3F934F935F93429A3BB1F6
:100B600033705C7F352B3BB95F9135B13C7F53705F
:100B7000352B35B94198419A4F913F919395903FCC
:100B8000A9F68395803A89F65F914F913F912F9115
:100B90001F9108955AE23F934F935F9342983BB160
:100BA00033705C7F352B3BB95F9135B13C7F53701F
:100BB000352B35B94198419A4F913F91582F3F932A
:100BC0004F935F93429A3BB133705C7F352B3BB9B7
:100BD0005F9135B13C7F5370352B35B94198419ABF
:100BE0004F913F9150E03F934F935F93429A3BB1B7
:100BF00033705C7F352B3BB95F9135B13C7F5370CF
:100C0000352B35B94198419A4F913F918395582F93
:100C10003F934F935F93429A3BB133705C7F352B88
:100C20003BB95F9135B13C7F5370352B35B9419855
:100C3000419A4F913F9150E03F934F935F93429A77
:100C40003BB133705C7F352B3BB95F9135B13C7F55
:100C50005370352B35B94198419A4F913F915BE2E2
:100C60003F934F935F9342983BB133705C7F352B3A
:100C70003BB95F9135B13C7F5370352B35B9419805
:100C8000419A4F913F915A2F3F934F935F93429ACE
:100C90003BB133705C7F352B3BB95F9135B13C7F05
:100CA0005370352B35B94198419A4F913F91592F47
:100CB0003F934F935F93429A3BB133705C7F352BE8
:100CC0003BB95F9135B13C7F5370352B35B94198B5
:100CD000419A4F913F91E1E09E0FE0E0AE1F5A2F05
:100CE0003F934F935F93429A3BB133705C7F352BB8
:100CF0003BB95F9135B13C7F5370352B35B9419885
:100D0000419A4F913F91592F3F934F935F93429A4E
:100D10003BB133705C7F352B3BB95F9135B13C7F84
:100D20005370352B35B94198419A4F913F9158985E
:100D30003BB1589A8827303009F481E008955AE28F
:100D40003F934F935F9342983BB133705C7F352B59
:100D50003BB95F9135B13C7F5370352B35B9419824
:100D6000419A4F913F91502D3F934F935F93429AF9
:100D70003BB133705C7F352B3BB95F9135B13C7F24
:100D80005370352B35B94198419A4F913F91582F67
:100D90003F934F935F93429A3BB133705C7F352B07
:100DA0003BB95F9135B13C7F5370352B35B94198D4
:100DB000419A4F913F91839550E03F934F935F93BA
:100DC000429A3BB133705C7F352B3BB95F9135B1B3
:100DD0003C7F5370352B35B94198419A4F913F91E3
:100DE000582F3F934F935F93429A3BB133705C7F90
:100DF000352B3BB95F9135B13C7F5370352B35B9FD
:100E00004198419A4F913F915BE23F934F935F939B
:100E100042983BB133705C7F352B3BB95F9135B164
:100E20003C7F5370352B35B94198419A4F913F9192
:100E30005A2F3F934F935F93429A3BB133705C7F3D
:100E4000352B3BB95F9135B13C7F5370352B35B9AC
:100E50004198419A4F913F91592F3F934F935F9300
:100E6000429A3BB133705C7F352B3BB95F9135B112
:100E70003C7F5370352B35B94198419A4F913F9142
:100E8000E1E09E0FE0E0AE1F5A2F3F934F935F9338
:100E9000429A3BB133705C7F352B3BB95F9135B1E2
:100EA0003C7F5370352B35B94198419A4F913F9112
:100EB000592F3F934F935F93429A3BB133705C7FBE
:100EC000352B3BB95F9135B13C7F5370352B35B92C
:100ED0004198419A4F913F915CE23F934F935F93CA
:100EE00042983BB133705C7F352B3BB95F9135B194
:100EF0003C7F5370352B35B94198419A4F913F91C2
:100F000050E03F934F935F93429A3BB133705C7FC5
:100F1000352B3BB95F9135B13C7F5370352B35B9DB
:100F20004198419A4F913F9150E03F934F935F9387
:100F3000429A3BB133705C7F352B3BB95F9135B141
:100F40003C7F5370352B35B94198419A4F913F9171
:100F500008955F935AE23F934F935F9342983BB15A
:100F600033705C7F352B3BB95F9135B13C7F53705B
:100F7000352B35B94198419A4F913F91582F3F9366
:100F80004F935F93429A3BB133705C7F352B3BB9F3
:100F90005F9135B13C7F5370352B35B94198419AFB
:100FA0004F913F9150E03F934F935F93429A3BB1F3
:100FB00033705C7F352B3BB95F9135B13C7F53700B
:100FC000352B35B94198419A4F913F918395582FD0
:100FD0003F934F935F93429A3BB133705C7F352BC5
:100FE0003BB95F9135B13C7F5370352B35B9419892
:100FF000419A4F913F9150E03F934F935F93429AB4
:101000003BB133705C7F352B3BB95F9135B13C7F91
:101010005370352B35B94198419A4F913F915BE21E
:101020003F934F935F9342983BB133705C7F352B76
:101030003BB95F9135B13C7F5370352B35B9419841
:10104000419A4F913F915A2F3F934F935F93429A0A
:101050003BB133705C7F352B3BB95F9135B13C7F41
:101060005370352B35B94198419A4F913F91592F83
:101070003F934F935F93429A3BB133705C7F352B24
:101080003BB95F9135B13C7F5370352B35B94198F1
:10109000419A4F913F91E1E09E0FE0E0AE1F5A2F41
:1010A0003F934F935F93429A3BB133705C7F352BF4
:1010B0003BB95F9135B13C7F5370352B35B94198C1
:1010C000419A4F913F91592F3F934F935F93429A8B
:1010D0003BB133705C7F352B3BB95F9135B13C7FC1
:1010E0005370352B35B94198419A4F913F915CE24D
:1010F0003F934F935F9342983BB133705C7F352BA6
:101100003BB95F9135B13C7F5370352B35B9419870
:10111000419A4F913F915C2F3F934F935F93429A37
:101120003BB133705C7F352B3BB95F9135B13C7F70
:101130005370352B35B94198419A4F913F915B2FB0
:101140003F934F935F93429A3BB133705C7F352B53
:101150003BB95F9135B13C7F5370352B35B9419820
:10116000419A4F913F9108955F935AE23F934F9375
:101170005F9342983BB133705C7F352B3BB95F91F5
:1011800035B13C7F5370352B35B94198419A4F9119
:101190003F91582F3F934F935F93429A3BB13370E7
:1011A0005C7F352B3BB95F9135B13C7F5370352B5C
:1011B00035B94198419A4F913F9150E03F934F93F9
:1011C0005F93429A3BB133705C7F352B3BB95F91A3
:1011D00035B13C7F5370352B35B94198419A4F91C9
:1011E0003F918395582F3F934F935F93429A3BB122
:1011F00033705C7F352B3BB95F9135B13C7F5370C9
:10120000352B35B94198419A4F913F9150E03F932A
:101210004F935F93429A3BB133705C7F352B3BB960
:101220005F9135B13C7F5370352B35B94198419A68
:101230004F913F915BE23F934F935F9342983BB155
:1012400033705C7F352B3BB95F9135B13C7F537078
:10125000352B35B94198419A4F913F915A2F3F9381
:101260004F935F93429A3BB133705C7F352B3BB910
:101270005F9135B13C7F5370352B35B94198419A18
:101280004F913F91592F3F934F935F93429A3BB1B8
:1012900033705C7F352B3BB95F9135B13C7F537028
:1012A000352B35B94198419A4F913F91E1E09E0F1E
:1012B000E0E0AE1F5A2F3F934F935F93429A3BB1AA
:1012C00033705C7F352B3BB95F9135B13C7F5370F8
:1012D000352B35B94198419A4F913F91592F3F9302
:1012E0004F935F93429A3BB133705C7F352B3BB990
:1012F0005F9135B13C7F5370352B35B94198419A98
:101300004F913F9108955CE23F934F935F934298D2
:101310003BB133705C7F352B3BB95F9135B13C7F7E
:101320005370352B35B94198419A4F913F91592FC0
:101330003F934F935F93429A3BB133705C7F352B61
:101340003BB95F9135B13C7F5370352B35B941982E
:10135000419A4F913F91582F3F934F935F93429AF9
:101360003BB133705C7F352B3BB95F9135B13C7F2E
:101370005370352B35B94198419A4F913F910E9456
:1013800052008FEF9FEF0E948304C0E0D0E005C0C1
:10139000BE018AE00E949F062196CA30D105C4F39F
:1013A00061E070E08AE00E94CA05882321F080EEA7
:0C13B00097E00E948304FFCFF894FFCF69
:00000001FF
